:020000040000FA
:1000000018020020F100000017010000D5000000D8
:1000100000000000000000000000000000000000E0
:100020000000000000000000000000001B010000B4
:1000300000000000000000001D0100001F01000082
:100040002101000021010000210100002101000028
:100050002101000021010000210100002101000018
:100060007108000085080000210100002101000046
:1000700021010000210100002101000021010000F8
:1000800021010000210100002101000021010000E8
:1000900021010000210100002101000021010000D8
:1000A00021010000210100002101000021010000C8
:1000B00021010000210100002101000021010000B8
:1000C0000348854600F09AF800480047FD0C000000
:1000D0001802002004207146084202D0EFF3098084
:1000E00001E0EFF308807146004A104785040000E4
:1000F0000C480D4901600D4901600D4901600D4A30
:100100000D4911600D4A0E491160002101600D4832
:1001100080470D480047FEE7FEE7FEE7FEE7FEE703
:10012000FEE700000001004059000000160000003A
:100130008800000024000040A55A00008002004012
:100140000100000021070000C100000030B50B468F
:10015000014600202022012409E00D46D5409D42A1
:1001600005D31D469540491B254695404019154627
:10017000521E002DF1DC30BD03460B439B0703D01C
:1001800009E008C9121F08C0042AFAD203E00B785C
:100190000370401C491C521EF9D27047F0B51FB4C1
:1001A0000646002082B005464024019100901BE0E5
:1001B000019922460F46304600F042F8049A059B0A
:1001C000801A994110D310461946224600F028F8AB
:1001D000361A8F410197224601200021009F00F02E
:1001E0001FF838184D4100902046641E0028DFDCBF
:1001F000019B00982946324607B0F0BD064C012508
:10020000064E05E0E36807CC2B430C3C98471034BE
:10021000B442F7D3FFF758FF800E0000A00E000095
:1002200010B5202A04DB0146203A9140002010BD81
:10023000914020239C1A0346E3401943904010BD8F
:1002400010B5202A04DB0846203AD040002110BD1A
:100250000B46D340D0402024A21A914008431946AF
:1002600010BD10B501220221202000F001F810BDC0
:1002700052010A4310210A4306490A6205494039DE
:100280008A6840231A438A604A6970239A4302436A
:100290004A617047400200400EB509490EC90091FD
:1002A0000192810F8A00029369468A5805495118C4
:1002B0004A68C306DB0E0120984002434A600EBD27
:1002C000480E00000002004002490A6802430A602A
:1002D000704700000002004010B500F0D7F9044854
:1002E000406B41070348490F0068C84010BD00003B
:1002F000000200400000002010B500F0C7F90448DB
:10030000406B4006410F03480068C84010BD000024
:10031000000200400000002008B511A0006811494B
:1003200000900968002005221204114216D108032A
:1003300001D50D4800E00D488A030FD40A04920F3E
:100340006B469B5CCA058904D20DC90E891C8008C6
:10035000921C59435043FFF7F9FE800008BD00008E
:100360000102020440020040001BB70000093D00EA
:10037000F3B5124881B005690F4610200F4C0540B7
:10038000403C2068042630432060102000F050F8E4
:100390002069072108432061206A000900013843D1
:1003A00020622069884301990843206100F06EF9BA
:1003B000002D02D12068B0432060FEBD4002004005
:1003C000F0B5194B88B0F0CB009401ACE0C478CB09
:1003D00004AF78C7840A23061B0E0ED003039B0FBD
:1003E0009B0004ADEB58114D5B19E5B28405E40E9A
:1003F000A5401C68AC4314431C60420E520710D049
:100400008200920F92006B469A58084B103BD2180C
:1004100003015B0FC001C00E83401068984308437E
:10042000106008B0F0BD0000280E0000200200405F
:1004300010B504460749084B05E00A46491E002A44
:1004400001DC002010BD1A6920469043F5D101203F
:1004500010BD000080F5200040020040F0B50023F0
:1004600001273C469C400C4208D005685C000326EE
:10047000A640B5431646A640354305605B1C102BCD
:10048000EFD3F0BD044603A000F0A4FA204600F02C
:1004900043FCFEE7496E2048617264204661756C3A
:1004A000742048616E646C65720A0000F8B52648D5
:1004B0002449C16141688908890041602248234973
:1004C000403001600021016208460124214681403C
:1004D000C9061AD51C4980310D6B032742003B46E3
:1004E000934002269D43964035430D630D6B16469F
:1004F0001036B740BD430D634D6B9D43234693407B
:100500001D434D634A6BBA434A63401C0628DDDB3A
:100510000D4D1021284600F01DF81021284600F04E
:100520001EF80B4908782043074C087040342068B7
:10053000FF21F531401C48434900FFF707FE2062C8
:10054000F8BD0000E7030000008005409F0F000099
:10055000100000208030826D0A438265704770B5BC
:10056000002201252B4693400B4206D0046A560810
:1005700076002B46B3401C430462521C062AF1D37A
:1005800070BD0000F8B559202A4C16218822206041
:10059000216022602368002BF9D000220C2126481C
:1005A000FFF75CFF0520FFF78FFE1120FFF740FFEC
:1005B00000210846FFF7DCFE204800254563204E59
:1005C0003046FFF769FE1F4F3846FFF765FE1E48AD
:1005D000FFF762FE1D48FFF75FFE002279063046F6
:1005E000FFF7EEFE002211463846FFF7E9FE002233
:1005F00011461548FFF7E4FE002201211348FFF7DA
:10060000DFFEB006C16BFF22120491433322520475
:100610008918C163816BF0229143B0318163C16B52
:1006200012059143072252068918C16300F02EF883
:100630002560F8BD0001004040410040000200403C
:10064000103D805F0200805E0300C05E100000A2CB
:100650000121020E890751188B6801228240134341
:100660008B608868904388607047000006498A69FB
:100670001202FCD408600A2804D188690002FCD464
:100680000D2008607047000000000740F8B51D4DC0
:1006900028691C4944071CA000680090640F0020D2
:1006A0004031096805221204114216D1080301D510
:1006B000164800E016488A030FD40A04920F6B46CE
:1006C0009B5CCA058904D20DC90E891C8008921C46
:1006D00059435043FFF73AFD80000E4E022CB060A4
:1006E00002D00D49A0000858296A0907090F491CC2
:1006F000FFF72CFD094930604A108018FFF726FDEE
:100700007060F8BD0002004001020204001BB70047
:1007100000093D0000000020C00D000040420F0015
:1007200010B559210A48162288230160026003602F
:100730000468002CF9D007490A6807231B059A436F
:100740000A600A688B121A430A600021016010BD1A
:10075000000100400002004010B50A4C7D2201213A
:10076000D200C906204600F063F82068012149073D
:10077000084320604815044908602068890508433B
:10078000206010BD0000054000E100E010B50A4CFB
:100790007D220121D200C906204600F049F82068D8
:1007A000210608432060081504490860206889056F
:1007B0000843206010BD00002000054000E100E07B
:1007C00010B588B00446202215496846FFF7D4FCCE
:1007D000144B144A14482033944202D14069000A51
:1007E0000BE09C4202D14069000B06E00F494069D2
:1007F0008C4201D1000C00E0000D4107490F022995
:1008000004D088006946085808B010BD944201D051
:100810009C4202D1FFF760FDF6E7FFF76DFDF3E7BD
:10082000600E00000000054000020040001005407E
:10083000F7B517460646FFF7C3FF054600244008F4
:10084000B84201D8022008E039462846FFF77EFC6E
:10085000040E02D0611CFFF779FC0199214331603D
:100860007060641C604301462846FFF76FFCFEBDC4
:1008700003488168C907C90F01D001218160704711
:100880000000054008498868C007C00F0BD0012050
:10089000886006498888421C8A807D22D200904266
:1008A00001D3002088807047200005401000002000
:1008B00010B50748FFF7CCFE064CE121490220465F
:1008C00000F00AF81421204600F078F810BD00006E
:1008D0001000000400000740F0B587B00F46044642
:1008E00000252E4618222E496846FFF745FC2D4963
:1008F0002D482E4A8C4205D14369006A5B015D0F89
:10090000000A0FE02A4B9C4206D14369006A5B0053
:100910005D0F0004060F07E0944205D1C369006B28
:100920005B015D0F0607360F002020630320E060A7
:10093000A068204B1840A060012D02D0042D04D0E7
:100940000DE0FFF7E9FC019009E08C4201D09442F0
:1009500002D1FFF7C1FC01E0FFF7CEFC0490002FAD
:100960001BD0A90068464058711CFFF7EFFB0546F5
:10097000790840183946FFF7E9FB0F49801E884285
:1009800007D9F90068183946FFF7E0FB0009801E17
:1009900002E0032109070843606207B0F0BD0000D0
:1009A000E00D00000000074000020040002007406A
:1009B000001007400FFFF0FFFFFF0000026A120A5D
:1009C00012020A43026241680122D20211434160CD
:1009D000704700000FB410B503A9044B044A0298F5
:1009E00000F018F810BC08BC04B01847F10C000067
:1009F0000C00002002E008C8121F08C1002AFAD12A
:100A000070477047002001E001C1121F002AFBD18E
:100A100070470000FFB58FB00F460446002606E081
:100A200025280AD0129A11999047641C761C2078C8
:100A30000028F5D1304613B0F0BD00250121A14AB0
:100A4000009500E00543641C23780846203B98404D
:100A50001042F7D120782E2815D104200543607864
:100A6000641C2A280AD101CF641C00900BE0009975
:100A70000A22514330394018641C00902078014606
:100A800030390929F3D920786C280ED004DC4C28A1
:100A900013D06A2812D104E074280ED07A280DD120
:100AA0000BE001204005054307E0012109056278BC
:100AB0000D43824201D16D18641C641C2078864667
:100AC00069284AD008DC0028B4D058286DD06328A3
:100AD00010D0642808D140E070286BD0732812D061
:100AE000752860D0782860D0129A70461199904786
:100AF000761CE5E03878694608720020487202A842
:100B00000190012003E0386801900020C0433F1DA0
:100B100069070CD5002500E06D1C00998D420FDAA5
:100B20008542F9DB0199495D0029F5D108E00025EE
:100B300000E06D1C8542FCDB0199495D0029F8D17C
:100B4000761907E0019801990078491C0191129AE1
:100B5000119990476D1EF5D2B2E00A200290002153
:100B60006802400F039102280CD001CFC1178446C0
:100B700000290DDA6246084652420021814194461E
:100B80002D2008E0FF1DFF08FF0003CF8446EFE79C
:100B9000280504D52B206A46107401203CE0E807A4
:100BA0003AD02020F7E70A2000E01020002103912E
:100BB000029007E010200290002104200543082045
:100BC000039100906802400F022810D001CF00214D
:100BD000844600200D9028071FD5704670280CD041
:100BE000029A1020039B42401A430CD015E0FF1DCF
:100BF000FF08FF0003CF8446EBE740206A461074ED
:100C000001200D900CE06046084306D030206A4673
:100C100010747046507402200D907046582804D00D
:100C200029A001900DA80E900DE02CA0F9E76046D8
:100C3000039B029AFFF7B2FA019B84469B5C0E9AD3
:100C4000521E0E92137060460843F0D10E9805A90B
:100C5000081A20300190680701D5009801E00120B2
:100C600000900199884203DD01460198081A00E0CE
:100C700000200025009006E004A8129A405D11991A
:100C800090476D1C761C0D988542F5DB04E0129AA6
:100C9000302011999047761C0099481E0090002939
:100CA000F5DC08E00E980E990078491C0E91129A16
:100CB00011999047761C0199481E01900029F1DC9A
:100CC000641CB4E60928010030313233343536373C
:100CD0003839616263646566000000003031323388
:100CE0003435363738394142434445460000000028
:100CF00010B50446FFF7BAFC204610BDFFF742FCD2
:100D0000FFF7D6FDFFF7D2FBFFF726FDFFF73EFD0D
:100D1000FFF7A7FAFEE7000010B50446016810A02F
:100D2000FFF758FE11A06168FFF754FE12A0A168FA
:100D3000FFF750FE13A0E168FFF74CFE14A02169F5
:100D4000FFF748FE15A06169FFF744FE16A0A169F0
:100D5000FFF740FE17A0E169FFF73CFE10BD000061
:100D6000723020203D20307825780A007231202012
:100D70003D20307825780A00723220203D203078DE
:100D800025780A00723320203D20307825780A002B
:100D9000723132203D20307825780A006C72202094
:100DA0003D20307825780A00706320203D2030787F
:100DB00025780A00707372203D20307825780A006B
:100DC00000093D000080000000D8B8050096000032
:100DD000006CDC020000000000000000006CDC027F
:100DE00000093D000000000000800000006CDC02F3
:100DF000000000000096000000093D000000000017
:100E000000800000006CDC02000000000096000082
:100E100000093D000000000000800000006CDC02C2
:100E20000000000000960000000000000400000028
:100E3000080000000C00000000000000000000009E
:100E4000000000001000000000000000040000008E
:100E5000080000000000000004000000080000007E
:100E600000093D00008000000000000000000000BC
:100E7000000000000096000000000000006CDC0292
:100E8000A00E00000000002018000000F40900007F
:100E9000B80E00001800002000020000040A000044
:100EA00000D8B8056000000000D8B80500000000B8
:080EB0000000F4010000000045
:04000005000000F106
:00000001FF
